{
  "contractName": "MedicalRecords",
  "abi": [
    {
      "inputs": [],
      "stateMutability": "nonpayable",
      "type": "constructor"
    },
    {
      "anonymous": false,
      "inputs": [
        {
          "indexed": true,
          "internalType": "address",
          "name": "patient",
          "type": "address"
        },
        {
          "indexed": true,
          "internalType": "address",
          "name": "doctor",
          "type": "address"
        }
      ],
      "name": "AccessGranted",
      "type": "event"
    },
    {
      "anonymous": false,
      "inputs": [
        {
          "indexed": true,
          "internalType": "address",
          "name": "patient",
          "type": "address"
        },
        {
          "indexed": true,
          "internalType": "address",
          "name": "doctor",
          "type": "address"
        }
      ],
      "name": "AccessRevoked",
      "type": "event"
    },
    {
      "anonymous": false,
      "inputs": [
        {
          "indexed": true,
          "internalType": "address",
          "name": "patient",
          "type": "address"
        },
        {
          "indexed": true,
          "internalType": "address",
          "name": "doctor",
          "type": "address"
        }
      ],
      "name": "RecordAdded",
      "type": "event"
    },
    {
      "inputs": [
        {
          "internalType": "address",
          "name": "",
          "type": "address"
        },
        {
          "internalType": "address",
          "name": "",
          "type": "address"
        }
      ],
      "name": "accessControl",
      "outputs": [
        {
          "internalType": "bool",
          "name": "",
          "type": "bool"
        }
      ],
      "stateMutability": "view",
      "type": "function",
      "constant": true
    },
    {
      "inputs": [
        {
          "internalType": "address",
          "name": "",
          "type": "address"
        }
      ],
      "name": "users",
      "outputs": [
        {
          "internalType": "enum MedicalRecords.Role",
          "name": "role",
          "type": "uint8"
        },
        {
          "internalType": "bool",
          "name": "exists",
          "type": "bool"
        }
      ],
      "stateMutability": "view",
      "type": "function",
      "constant": true
    },
    {
      "inputs": [
        {
          "internalType": "enum MedicalRecords.Role",
          "name": "_role",
          "type": "uint8"
        }
      ],
      "name": "register",
      "outputs": [],
      "stateMutability": "nonpayable",
      "type": "function"
    },
    {
      "inputs": [
        {
          "internalType": "enum MedicalRecords.Role",
          "name": "_role",
          "type": "uint8"
        }
      ],
      "name": "registerWithTracking",
      "outputs": [],
      "stateMutability": "nonpayable",
      "type": "function"
    },
    {
      "inputs": [
        {
          "internalType": "address",
          "name": "_doctor",
          "type": "address"
        }
      ],
      "name": "grantAccess",
      "outputs": [],
      "stateMutability": "nonpayable",
      "type": "function"
    },
    {
      "inputs": [
        {
          "internalType": "address",
          "name": "_doctor",
          "type": "address"
        }
      ],
      "name": "revokeAccess",
      "outputs": [],
      "stateMutability": "nonpayable",
      "type": "function"
    },
    {
      "inputs": [
        {
          "internalType": "address",
          "name": "_patient",
          "type": "address"
        },
        {
          "internalType": "string",
          "name": "_cid",
          "type": "string"
        },
        {
          "internalType": "string",
          "name": "_description",
          "type": "string"
        }
      ],
      "name": "addRecord",
      "outputs": [],
      "stateMutability": "nonpayable",
      "type": "function"
    },
    {
      "inputs": [],
      "name": "getMyRecords",
      "outputs": [
        {
          "components": [
            {
              "internalType": "string",
              "name": "cid",
              "type": "string"
            },
            {
              "internalType": "string",
              "name": "description",
              "type": "string"
            },
            {
              "internalType": "uint256",
              "name": "timestamp",
              "type": "uint256"
            },
            {
              "internalType": "address",
              "name": "addedBy",
              "type": "address"
            }
          ],
          "internalType": "struct MedicalRecords.Record[]",
          "name": "",
          "type": "tuple[]"
        }
      ],
      "stateMutability": "view",
      "type": "function",
      "constant": true
    },
    {
      "inputs": [
        {
          "internalType": "address",
          "name": "_patient",
          "type": "address"
        }
      ],
      "name": "getPatientRecords",
      "outputs": [
        {
          "components": [
            {
              "internalType": "string",
              "name": "cid",
              "type": "string"
            },
            {
              "internalType": "string",
              "name": "description",
              "type": "string"
            },
            {
              "internalType": "uint256",
              "name": "timestamp",
              "type": "uint256"
            },
            {
              "internalType": "address",
              "name": "addedBy",
              "type": "address"
            }
          ],
          "internalType": "struct MedicalRecords.Record[]",
          "name": "",
          "type": "tuple[]"
        }
      ],
      "stateMutability": "view",
      "type": "function",
      "constant": true
    },
    {
      "inputs": [],
      "name": "getAnonymizedData",
      "outputs": [
        {
          "internalType": "uint256",
          "name": "totalPatients",
          "type": "uint256"
        },
        {
          "internalType": "uint256",
          "name": "totalRecords",
          "type": "uint256"
        }
      ],
      "stateMutability": "view",
      "type": "function",
      "constant": true
    }
  ],
  "bytecode": "0x608060405234801561001057600080fd5b506040518060400160405280600380811115610055577f4e487b7100000000000000000000000000000000000000000000000000000000600052602160045260246000fd5b8152602001600115158152506000803373ffffffffffffffffffffffffffffffffffffffff1673ffffffffffffffffffffffffffffffffffffffff16815260200190815260200160002060008201518160000160006101000a81548160ff021916908360038111156100f0577f4e487b7100000000000000000000000000000000000000000000000000000000600052602160045260246000fd5b021790555060208201518160000160016101000a81548160ff021916908315150217905550905050612419806101276000396000f3fe608060405234801561001057600080fd5b50600436106100bb576000357c010000000000000000000000000000000000000000000000000000000090048063a87430ba11610083578063a87430ba14610174578063d1b35654146101a5578063d47b41d5146101c1578063d82314d7146101dd578063e76637ce146101fc576100bb565b806303536d43146100c05780630ae5e739146100f057806318bd48471461010c57806361d689fa1461013c57806385e6853114610158575b600080fd5b6100da60048036038101906100d59190611c5f565b61021a565b6040516100e79190612026565b60405180910390f35b61010a60048036038101906101059190611c36565b610249565b005b61012660048036038101906101219190611c36565b61053f565b6040516101339190612004565b60405180910390f35b61015660048036038101906101519190611d24565b61092d565b005b610172600480360381019061016d9190611c36565b610bf6565b005b61018e60048036038101906101899190611c36565b610deb565b60405161019c929190612041565b60405180910390f35b6101bf60048036038101906101ba9190611d24565b610e29565b005b6101db60048036038101906101d69190611c9b565b611155565b005b6101e5611536565b6040516101f392919061210a565b60405180910390f35b6102046117fc565b6040516102119190612004565b60405180910390f35b60026020528160005260406000206020528060005260406000206000915091509054906101000a900460ff1681565b6001806003811115610284577f4e487b7100000000000000000000000000000000000000000000000000000000600052602160045260246000fd5b6000803373ffffffffffffffffffffffffffffffffffffffff1673ffffffffffffffffffffffffffffffffffffffff16815260200190815260200160002060000160009054906101000a900460ff16600381111561030b577f4e487b7100000000000000000000000000000000000000000000000000000000600052602160045260246000fd5b1461034b576040517f08c379a00000000000000000000000000000000000000000000000000000000081526004016103429061206a565b60405180910390fd5b60026003811115610385577f4e487b7100000000000000000000000000000000000000000000000000000000600052602160045260246000fd5b6000808473ffffffffffffffffffffffffffffffffffffffff1673ffffffffffffffffffffffffffffffffffffffff16815260200190815260200160002060000160009054906101000a900460ff16600381111561040c577f4e487b7100000000000000000000000000000000000000000000000000000000600052602160045260246000fd5b1461044c576040517f08c379a0000000000000000000000000000000000000000000000000000000008152600401610443906120ca565b60405180910390fd5b6001600260003373ffffffffffffffffffffffffffffffffffffffff1673ffffffffffffffffffffffffffffffffffffffff16815260200190815260200160002060008473ffffffffffffffffffffffffffffffffffffffff1673ffffffffffffffffffffffffffffffffffffffff16815260200190815260200160002060006101000a81548160ff0219169083151502179055508173ffffffffffffffffffffffffffffffffffffffff163373ffffffffffffffffffffffffffffffffffffffff167f9f520b3bfc56d06f7065d10b4683b3f57ac8895d5026cd176dee95ce1454cb8d60405160405180910390a35050565b6060600280600381111561057c577f4e487b7100000000000000000000000000000000000000000000000000000000600052602160045260246000fd5b6000803373ffffffffffffffffffffffffffffffffffffffff1673ffffffffffffffffffffffffffffffffffffffff16815260200190815260200160002060000160009054906101000a900460ff166003811115610603577f4e487b7100000000000000000000000000000000000000000000000000000000600052602160045260246000fd5b14610643576040517f08c379a000000000000000000000000000000000000000000000000000000000815260040161063a9061206a565b60405180910390fd5b600260008473ffffffffffffffffffffffffffffffffffffffff1673ffffffffffffffffffffffffffffffffffffffff16815260200190815260200160002060003373ffffffffffffffffffffffffffffffffffffffff1673ffffffffffffffffffffffffffffffffffffffff16815260200190815260200160002060009054906101000a900460ff1661070c576040517f08c379a0000000000000000000000000000000000000000000000000000000008152600401610703906120ea565b60405180910390fd5b600160008473ffffffffffffffffffffffffffffffffffffffff1673ffffffffffffffffffffffffffffffffffffffff168152602001908152602001600020805480602002602001604051908101604052809291908181526020016000905b82821015610921578382906000526020600020906004020160405180608001604052908160008201805461079e9061228f565b80601f01602080910402602001604051908101604052809291908181526020018280546107ca9061228f565b80156108175780601f106107ec57610100808354040283529160200191610817565b820191906000526020600020905b8154815290600101906020018083116107fa57829003601f168201915b505050505081526020016001820180546108309061228f565b80601f016020809104026020016040519081016040528092919081815260200182805461085c9061228f565b80156108a95780601f1061087e576101008083540402835291602001916108a9565b820191906000526020600020905b81548152906001019060200180831161088c57829003601f168201915b50505050508152602001600282015481526020016003820160009054906101000a900473ffffffffffffffffffffffffffffffffffffffff1673ffffffffffffffffffffffffffffffffffffffff1673ffffffffffffffffffffffffffffffffffffffff16815250508152602001906001019061076b565b50505050915050919050565b6000803373ffffffffffffffffffffffffffffffffffffffff1673ffffffffffffffffffffffffffffffffffffffff16815260200190815260200160002060000160019054906101000a900460ff16156109bc576040517f08c379a00000000000000000000000000000000000000000000000000000000081526004016109b39061208a565b60405180910390fd5b600060038111156109f6577f4e487b7100000000000000000000000000000000000000000000000000000000600052602160045260246000fd5b816003811115610a2f577f4e487b7100000000000000000000000000000000000000000000000000000000600052602160045260246000fd5b14158015610aad5750600380811115610a71577f4e487b7100000000000000000000000000000000000000000000000000000000600052602160045260246000fd5b816003811115610aaa577f4e487b7100000000000000000000000000000000000000000000000000000000600052602160045260246000fd5b14155b610aec576040517f08c379a0000000000000000000000000000000000000000000000000000000008152600401610ae3906120aa565b60405180910390fd5b6040518060400160405280826003811115610b30577f4e487b7100000000000000000000000000000000000000000000000000000000600052602160045260246000fd5b8152602001600115158152506000803373ffffffffffffffffffffffffffffffffffffffff1673ffffffffffffffffffffffffffffffffffffffff16815260200190815260200160002060008201518160000160006101000a81548160ff02191690836003811115610bcb577f4e487b7100000000000000000000000000000000000000000000000000000000600052602160045260246000fd5b021790555060208201518160000160016101000a81548160ff02191690831515021790555090505050565b6001806003811115610c31577f4e487b7100000000000000000000000000000000000000000000000000000000600052602160045260246000fd5b6000803373ffffffffffffffffffffffffffffffffffffffff1673ffffffffffffffffffffffffffffffffffffffff16815260200190815260200160002060000160009054906101000a900460ff166003811115610cb8577f4e487b7100000000000000000000000000000000000000000000000000000000600052602160045260246000fd5b14610cf8576040517f08c379a0000000000000000000000000000000000000000000000000000000008152600401610cef9061206a565b60405180910390fd5b6000600260003373ffffffffffffffffffffffffffffffffffffffff1673ffffffffffffffffffffffffffffffffffffffff16815260200190815260200160002060008473ffffffffffffffffffffffffffffffffffffffff1673ffffffffffffffffffffffffffffffffffffffff16815260200190815260200160002060006101000a81548160ff0219169083151502179055508173ffffffffffffffffffffffffffffffffffffffff163373ffffffffffffffffffffffffffffffffffffffff167f825c8be24eb0df19500f63e86c29e7d0d951e73056b889b891d85e40938d9b6e60405160405180910390a35050565b60006020528060005260406000206000915090508060000160009054906101000a900460ff16908060000160019054906101000a900460ff16905082565b6000803373ffffffffffffffffffffffffffffffffffffffff1673ffffffffffffffffffffffffffffffffffffffff16815260200190815260200160002060000160019054906101000a900460ff1615610eb8576040517f08c379a0000000000000000000000000000000000000000000000000000000008152600401610eaf9061208a565b60405180910390fd5b60006003811115610ef2577f4e487b7100000000000000000000000000000000000000000000000000000000600052602160045260246000fd5b816003811115610f2b577f4e487b7100000000000000000000000000000000000000000000000000000000600052602160045260246000fd5b14158015610fa95750600380811115610f6d577f4e487b7100000000000000000000000000000000000000000000000000000000600052602160045260246000fd5b816003811115610fa6577f4e487b7100000000000000000000000000000000000000000000000000000000600052602160045260246000fd5b14155b610fe8576040517f08c379a0000000000000000000000000000000000000000000000000000000008152600401610fdf906120aa565b60405180910390fd5b604051806040016040528082600381111561102c577f4e487b7100000000000000000000000000000000000000000000000000000000600052602160045260246000fd5b8152602001600115158152506000803373ffffffffffffffffffffffffffffffffffffffff1673ffffffffffffffffffffffffffffffffffffffff16815260200190815260200160002060008201518160000160006101000a81548160ff021916908360038111156110c7577f4e487b7100000000000000000000000000000000000000000000000000000000600052602160045260246000fd5b021790555060208201518160000160016101000a81548160ff0219169083151502179055509050506003339080600181540180825580915050600190039060005260206000200160009091909190916101000a81548173ffffffffffffffffffffffffffffffffffffffff021916908373ffffffffffffffffffffffffffffffffffffffff16021790555050565b6002806003811115611190577f4e487b7100000000000000000000000000000000000000000000000000000000600052602160045260246000fd5b6000803373ffffffffffffffffffffffffffffffffffffffff1673ffffffffffffffffffffffffffffffffffffffff16815260200190815260200160002060000160009054906101000a900460ff166003811115611217577f4e487b7100000000000000000000000000000000000000000000000000000000600052602160045260246000fd5b14611257576040517f08c379a000000000000000000000000000000000000000000000000000000000815260040161124e9061206a565b60405180910390fd5b600260008773ffffffffffffffffffffffffffffffffffffffff1673ffffffffffffffffffffffffffffffffffffffff16815260200190815260200160002060003373ffffffffffffffffffffffffffffffffffffffff1673ffffffffffffffffffffffffffffffffffffffff16815260200190815260200160002060009054906101000a900460ff16611320576040517f08c379a0000000000000000000000000000000000000000000000000000000008152600401611317906120ea565b60405180910390fd5b600160008773ffffffffffffffffffffffffffffffffffffffff1673ffffffffffffffffffffffffffffffffffffffff168152602001908152602001600020604051806080016040528087878080601f016020809104026020016040519081016040528093929190818152602001838380828437600081840152601f19601f82011690508083019250505050505050815260200185858080601f016020809104026020016040519081016040528093929190818152602001838380828437600081840152601f19601f8201169050808301925050505050505081526020014281526020013373ffffffffffffffffffffffffffffffffffffffff1681525090806001815401808255809150506001900390600052602060002090600402016000909190919091506000820151816000019080519060200190611463929190611b1f565b506020820151816001019080519060200190611480929190611b1f565b506040820151816002015560608201518160030160006101000a81548173ffffffffffffffffffffffffffffffffffffffff021916908373ffffffffffffffffffffffffffffffffffffffff16021790555050503373ffffffffffffffffffffffffffffffffffffffff168673ffffffffffffffffffffffffffffffffffffffff167fcf46a95ed429f3df030a7824b5c00b7be7deb792b9e73ad3091d0648ba2a3f1c60405160405180910390a3505050505050565b6000806003806003811115611574577f4e487b7100000000000000000000000000000000000000000000000000000000600052602160045260246000fd5b6000803373ffffffffffffffffffffffffffffffffffffffff1673ffffffffffffffffffffffffffffffffffffffff16815260200190815260200160002060000160009054906101000a900460ff1660038111156115fb577f4e487b7100000000000000000000000000000000000000000000000000000000600052602160045260246000fd5b1461163b576040517f08c379a00000000000000000000000000000000000000000000000000000000081526004016116329061206a565b60405180910390fd5b600092506000915060005b6003805490508110156117f65760006003828154811061168f577f4e487b7100000000000000000000000000000000000000000000000000000000600052603260045260246000fd5b9060005260206000200160009054906101000a900473ffffffffffffffffffffffffffffffffffffffff169050600160038111156116f6577f4e487b7100000000000000000000000000000000000000000000000000000000600052602160045260246000fd5b6000808373ffffffffffffffffffffffffffffffffffffffff1673ffffffffffffffffffffffffffffffffffffffff16815260200190815260200160002060000160009054906101000a900460ff16600381111561177d577f4e487b7100000000000000000000000000000000000000000000000000000000600052602160045260246000fd5b14156117e257848061178e906122c1565b955050600160008273ffffffffffffffffffffffffffffffffffffffff1673ffffffffffffffffffffffffffffffffffffffff16815260200190815260200160002080549050846117df9190612199565b93505b5080806117ee906122c1565b915050611646565b50509091565b60606001806003811115611839577f4e487b7100000000000000000000000000000000000000000000000000000000600052602160045260246000fd5b6000803373ffffffffffffffffffffffffffffffffffffffff1673ffffffffffffffffffffffffffffffffffffffff16815260200190815260200160002060000160009054906101000a900460ff1660038111156118c0577f4e487b7100000000000000000000000000000000000000000000000000000000600052602160045260246000fd5b14611900576040517f08c379a00000000000000000000000000000000000000000000000000000000081526004016118f79061206a565b60405180910390fd5b600160003373ffffffffffffffffffffffffffffffffffffffff1673ffffffffffffffffffffffffffffffffffffffff168152602001908152602001600020805480602002602001604051908101604052809291908181526020016000905b82821015611b1557838290600052602060002090600402016040518060800160405290816000820180546119929061228f565b80601f01602080910402602001604051908101604052809291908181526020018280546119be9061228f565b8015611a0b5780601f106119e057610100808354040283529160200191611a0b565b820191906000526020600020905b8154815290600101906020018083116119ee57829003601f168201915b50505050508152602001600182018054611a249061228f565b80601f0160208091040260200160405190810160405280929190818152602001828054611a509061228f565b8015611a9d5780601f10611a7257610100808354040283529160200191611a9d565b820191906000526020600020905b815481529060010190602001808311611a8057829003601f168201915b50505050508152602001600282015481526020016003820160009054906101000a900473ffffffffffffffffffffffffffffffffffffffff1673ffffffffffffffffffffffffffffffffffffffff1673ffffffffffffffffffffffffffffffffffffffff16815250508152602001906001019061195f565b5050505091505090565b828054611b2b9061228f565b90600052602060002090601f016020900481019282611b4d5760008555611b94565b82601f10611b6657805160ff1916838001178555611b94565b82800160010185558215611b94579182015b82811115611b93578251825591602001919060010190611b78565b5b509050611ba19190611ba5565b5090565b5b80821115611bbe576000816000905550600101611ba6565b5090565b600081359050611bd1816123bc565b92915050565b600081359050611be6816123d3565b92915050565b60008083601f840112611bfe57600080fd5b8235905067ffffffffffffffff811115611c1757600080fd5b602083019150836001820283011115611c2f57600080fd5b9250929050565b600060208284031215611c4857600080fd5b6000611c5684828501611bc2565b91505092915050565b60008060408385031215611c7257600080fd5b6000611c8085828601611bc2565b9250506020611c9185828601611bc2565b9150509250929050565b600080600080600060608688031215611cb357600080fd5b6000611cc188828901611bc2565b955050602086013567ffffffffffffffff811115611cde57600080fd5b611cea88828901611bec565b9450945050604086013567ffffffffffffffff811115611d0957600080fd5b611d1588828901611bec565b92509250509295509295909350565b600060208284031215611d3657600080fd5b6000611d4484828501611bd7565b91505092915050565b6000611d598383611f7c565b905092915050565b611d6a816121ef565b82525050565b6000611d7b82612143565b611d858185612166565b935083602082028501611d9785612133565b8060005b85811015611dd35784840389528151611db48582611d4d565b9450611dbf83612159565b925060208a01995050600181019050611d9b565b50829750879550505050505092915050565b611dee81612201565b82525050565b611dfd8161224a565b82525050565b6000611e0e8261214e565b611e188185612177565b9350611e2881856020860161225c565b611e3181612397565b840191505092915050565b6000611e49600c83612188565b91507f556e617574686f72697a656400000000000000000000000000000000000000006000830152602082019050919050565b6000611e89601283612188565b91507f416c7265616479207265676973746572656400000000000000000000000000006000830152602082019050919050565b6000611ec9600c83612188565b91507f496e76616c696420726f6c6500000000000000000000000000000000000000006000830152602082019050919050565b6000611f09600c83612188565b91507f4e6f74206120646f63746f7200000000000000000000000000000000000000006000830152602082019050919050565b6000611f49601483612188565b91507f4e6f2061636365737320746f2070617469656e740000000000000000000000006000830152602082019050919050565b60006080830160008301518482036000860152611f998282611e03565b91505060208301518482036020860152611fb38282611e03565b9150506040830151611fc86040860182611fe6565b506060830151611fdb6060860182611d61565b508091505092915050565b611fef81612240565b82525050565b611ffe81612240565b82525050565b6000602082019050818103600083015261201e8184611d70565b905092915050565b600060208201905061203b6000830184611de5565b92915050565b60006040820190506120566000830185611df4565b6120636020830184611de5565b9392505050565b6000602082019050818103600083015261208381611e3c565b9050919050565b600060208201905081810360008301526120a381611e7c565b9050919050565b600060208201905081810360008301526120c381611ebc565b9050919050565b600060208201905081810360008301526120e381611efc565b9050919050565b6000602082019050818103600083015261210381611f3c565b9050919050565b600060408201905061211f6000830185611ff5565b61212c6020830184611ff5565b9392505050565b6000819050602082019050919050565b600081519050919050565b600081519050919050565b6000602082019050919050565b600082825260208201905092915050565b600082825260208201905092915050565b600082825260208201905092915050565b60006121a482612240565b91506121af83612240565b9250827fffffffffffffffffffffffffffffffffffffffffffffffffffffffffffffffff038211156121e4576121e361230a565b5b828201905092915050565b60006121fa82612220565b9050919050565b60008115159050919050565b600081905061221b826123a8565b919050565b600073ffffffffffffffffffffffffffffffffffffffff82169050919050565b6000819050919050565b60006122558261220d565b9050919050565b60005b8381101561227a57808201518184015260208101905061225f565b83811115612289576000848401525b50505050565b600060028204905060018216806122a757607f821691505b602082108114156122bb576122ba612368565b5b50919050565b60006122cc82612240565b91507fffffffffffffffffffffffffffffffffffffffffffffffffffffffffffffffff8214156122ff576122fe61230a565b5b600182019050919050565b7f4e487b7100000000000000000000000000000000000000000000000000000000600052601160045260246000fd5b7f4e487b7100000000000000000000000000000000000000000000000000000000600052602160045260246000fd5b7f4e487b7100000000000000000000000000000000000000000000000000000000600052602260045260246000fd5b6000601f19601f8301169050919050565b600481106123b9576123b8612339565b5b50565b6123c5816121ef565b81146123d057600080fd5b50565b600481106123e057600080fd5b5056fea2646970667358221220b628f54b5dc419df4be7be2841c971a893448a0d3cf3882b74a84009cdcd1d7764736f6c63430008000033",
  "immutableReferences": {},
  "source": "// SPDX-License-Identifier: MIT\npragma solidity ^0.8.0;\n\ncontract MedicalRecords {\n    enum Role {\n        None,\n        Patient,\n        Doctor,\n        Government\n    }\n\n    struct Record {\n        string cid; // IPFS CID\n        string description; // Optional file description\n        uint timestamp;\n        address addedBy; // Doctor address\n    }\n\n    struct User {\n        Role role;\n        bool exists;\n    }\n\n    mapping(address => User) public users;\n    mapping(address => Record[]) private medicalHistory;\n    \n    // Patient to doctor access control\n    mapping(address => mapping(address => bool)) public accessControl;\n    \n    // Track all registered users for government statistics\n    address[] private allUsers;\n\n    // Events\n    event RecordAdded(address indexed patient, address indexed doctor);\n    event AccessGranted(address indexed patient, address indexed doctor);\n    event AccessRevoked(address indexed patient, address indexed doctor);\n\n    modifier onlyRole(Role _role) {\n        require(users[msg.sender].role == _role, \"Unauthorized\");\n        _;\n    }\n\n    constructor() {\n        // Initial government registration\n        users[msg.sender] = User({role: Role.Government, exists: true});\n    }\n\n    // Register users with specific roles\n    function register(Role _role) external {\n        require(!users[msg.sender].exists, \"Already registered\");\n        require(_role != Role.None && _role != Role.Government, \"Invalid role\");\n        users[msg.sender] = User({role: _role, exists: true});\n    }\n\n    // Enhanced register to keep track of all users\n    function registerWithTracking(Role _role) external {\n        require(!users[msg.sender].exists, \"Already registered\");\n        require(_role != Role.None && _role != Role.Government, \"Invalid role\");\n        users[msg.sender] = User({role: _role, exists: true});\n        allUsers.push(msg.sender);\n    }\n\n    // Grant access to a doctor\n    function grantAccess(address _doctor) external onlyRole(Role.Patient) {\n        require(users[_doctor].role == Role.Doctor, \"Not a doctor\");\n        accessControl[msg.sender][_doctor] = true;\n        emit AccessGranted(msg.sender, _doctor);\n    }\n\n    // Revoke access from a doctor\n    function revokeAccess(address _doctor) external onlyRole(Role.Patient) {\n        accessControl[msg.sender][_doctor] = false;\n        emit AccessRevoked(msg.sender, _doctor);\n    }\n\n    // Doctor adds a record to a patient (if they have access)\n    function addRecord(address _patient, string calldata _cid, string calldata _description) external onlyRole(Role.Doctor) {\n        require(accessControl[_patient][msg.sender], \"No access to patient\");\n        \n        medicalHistory[_patient].push(Record({\n            cid: _cid,\n            description: _description,\n            timestamp: block.timestamp,\n            addedBy: msg.sender\n        }));\n        \n        emit RecordAdded(_patient, msg.sender);\n    }\n\n    // Patient views their own records\n    function getMyRecords()\n        external\n        view\n        onlyRole(Role.Patient)\n        returns (Record[] memory)\n    {\n        return medicalHistory[msg.sender];\n    }\n\n    // Doctor views records of a patient they have access to\n    function getPatientRecords(\n        address _patient\n    ) external view onlyRole(Role.Doctor) returns (Record[] memory) {\n        require(accessControl[_patient][msg.sender], \"No access to patient\");\n        return medicalHistory[_patient];\n    }\n\n    // Government fetches anonymous data\n    function getAnonymizedData()\n        external\n        view\n        onlyRole(Role.Government)\n        returns (uint totalPatients, uint totalRecords)\n    {\n        // Pseudo-anonymity: counts only\n        totalPatients = 0;\n        totalRecords = 0;\n\n        for (uint i = 0; i < allUsers.length; i++) {\n            address user = allUsers[i];\n            if (users[user].role == Role.Patient) {\n                totalPatients++;\n                totalRecords += medicalHistory[user].length;\n            }\n        }\n        \n        return (totalPatients, totalRecords);\n    }\n}\n",
  "sourcePath": "/home/risshi/code2025/rss-blockchain/contracts/MedicalRecords.sol",
  "compiler": {
    "name": "solc",
    "version": "0.8.0+commit.c7dfd78e.Emscripten.clang"
  },
  "schemaVersion": "3.4.16",
  "updatedAt": "2025-04-19T23:51:51.230Z",
  "networkType": "ethereum",
  "devdoc": {
    "kind": "dev",
    "methods": {},
    "version": 1
  },
  "userdoc": {
    "kind": "user",
    "methods": {},
    "version": 1
  }
}